{
  "_format": "hh-sol-artifact-1",
  "contractName": "ProofEd",
  "sourceName": "contracts/ProofEd.sol",
  "abi": [
    {
      "anonymous": false,
      "inputs": [
        {
          "indexed": false,
          "internalType": "bytes32",
          "name": "certHash",
          "type": "bytes32"
        },
        {
          "indexed": false,
          "internalType": "address",
          "name": "issuer",
          "type": "address"
        }
      ],
      "name": "CertificateIssued",
      "type": "event"
    },
    {
      "inputs": [
        {
          "internalType": "bytes32",
          "name": "",
          "type": "bytes32"
        }
      ],
      "name": "certificates",
      "outputs": [
        {
          "internalType": "bool",
          "name": "",
          "type": "bool"
        }
      ],
      "stateMutability": "view",
      "type": "function"
    },
    {
      "inputs": [
        {
          "internalType": "bytes32",
          "name": "certHash",
          "type": "bytes32"
        }
      ],
      "name": "issueCertificate",
      "outputs": [],
      "stateMutability": "nonpayable",
      "type": "function"
    }
  ],
  "bytecode": "0x6080604052348015600f57600080fd5b506103388061001f6000396000f3fe608060405234801561001057600080fd5b50600436106100365760003560e01c8063742f06881461003b578063a1f818241461006b575b600080fd5b610055600480360381019061005091906101a9565b610087565b60405161006291906101f1565b60405180910390f35b610085600480360381019061008091906101a9565b6100a7565b005b60006020528060005260406000206000915054906101000a900460ff1681565b60008082815260200190815260200160002060009054906101000a900460ff1615610107576040517f08c379a00000000000000000000000000000000000000000000000000000000081526004016100fe90610269565b60405180910390fd5b600160008083815260200190815260200160002060006101000a81548160ff0219169083151502179055507f11fb9f283c08b0122fe14bf3b5692d38f07282003f545f4bbc8b766ddcbda83281336040516101639291906102d9565b60405180910390a150565b600080fd5b6000819050919050565b61018681610173565b811461019157600080fd5b50565b6000813590506101a38161017d565b92915050565b6000602082840312156101bf576101be61016e565b5b60006101cd84828501610194565b91505092915050565b60008115159050919050565b6101eb816101d6565b82525050565b600060208201905061020660008301846101e2565b92915050565b600082825260208201905092915050565b7f436572746966696361746520616c726561647920657869737473000000000000600082015250565b6000610253601a8361020c565b915061025e8261021d565b602082019050919050565b6000602082019050818103600083015261028281610246565b9050919050565b61029281610173565b82525050565b600073ffffffffffffffffffffffffffffffffffffffff82169050919050565b60006102c382610298565b9050919050565b6102d3816102b8565b82525050565b60006040820190506102ee6000830185610289565b6102fb60208301846102ca565b939250505056fea2646970667358221220643daaf387ddc3a5ae9fb76861ef6dca452972d986e3b2da2ec4fb8bd238422264736f6c634300081c0033",
  "linkReferences": {},
  "deployedLinkReferences": {}
}